:020000041000EA
:1000000000B5324B212058609868022188439860DF
:10001000D860186158612E4B002199600221596106
:100020000121F02299502B49196001219960352056
:1000300000F044F80222904214D00621196600F024
:1000400034F8196E01211966002018661A6600F04E
:100050002CF8196E196E196E052000F02FF8012189
:100060000842F9D1002199601B49196000215960AB
:100070001A491B48016001219960EB211966A021F2
:10008000196600F012F800219960164914480160C1
:100090000121996001BC002800D000471248134993
:1000A000086003C880F30888084703B5996A0420EC
:1000B0000142FBD001200142F8D103BD02B5186610
:1000C0001866FFF7F2FF186E186E02BD00000240BE
:1000D000000000180000070000035F00212200005C
:1000E000F4000018222000A00001001008ED00E03C
:1000F00000000000000000000000000074B24E7A12
:1001000000200420F7010010C3010010C5010010F9
:10011000C1010010C1010010C1010010C101001097
:10012000C1010010C1010010C1010010C701001081
:10013000C1010010C1010010C9010010CB01001065
:10014000CD010010CD010010CD010010CD01001037
:10015000CD010010CD010010CD010010CD01001027
:10016000CD010010CD010010CD010010CD01001017
:10017000CD010010CD010010CD010010CD01001007
:10018000CD010010CD010010CD010010CD010010F7
:10019000CD010010CD010010CD010010CD010010E7
:1001A000CD010010CD010010CD010010CD010010D7
:1001B000CD010010CD010010CD010010CD010010C7
:1001C00000BE00BE00BE00BE00BE00BEEFF3058054
:1001D000103800BEF2EB887188830010B4830010E1
:1001E0003802001090A31AE71E481F49086006C88D
:1001F00081F3088810471D480068002801D019487D
:10020000F3E70DA40ECC002902D000F012F8F9E7B4
:100210001749184A002000E001C19142FCD116495B
:100220008847164988471649884700BEFDE701C937
:1002300001C29A42FBD37047B4830010C000002073
:10024000681000205C9300100000042000000420CF
:100250005C93001000100420001004200000000037
:10026000704700000000000008ED00E0000000D032
:10027000681000206C2B00201D4C0010190300108A
:10028000154C0010F8B5C04606480749091A8B10EE
:10029000C90FC91810B5491003D0044B002B00D06A
:1002A000984710BD68100020681000200000000072
:1002B000054B10B5002B03D00449054800E000BFF2
:1002C000FFF7E2FF10BDC04600000000242A002016
:1002D000847B001070B5D0248025060024061920E8
:1002E000AD0400F085FE656203E0AF20800001F000
:1002F000D3FC9620656101F0CFFC9620A56101F04A
:10030000CBFC022EF1D19620656101F0C5FC962050
:10031000A56101F0C1FCE8E7F0B5DE464E46454672
:100320005746E0B5C820F5B001F0B6FC04F082FDF8
:10033000C82001F0B1FC16AB98461AAE3200414617
:10034000E24824AB02F0E4F8002803D1E048DF499A
:1003500000F074FE249A1A99169801F0FDFF1920F6
:1003600000F046FED024802324069B04636208200C
:10037000636100F03DFE80235B00A362032000F078
:1003800037FE082348226362012412AB9B1824A97C
:1003900000201C8005F0E6F800224046CD4900F020
:1003A0008BFB00280BD0330000224046CA4900F0E6
:1003B000FFFB1490002805D10220FFF78BFF2000DF
:1003C000FFF788FF01F06EFD002900D159E1FA2204
:1003D0000023920002F006FC8246BF4BBF4D0593FE
:1003E00000239B460993BE4B1593BE4B0693BE4B11
:1003F0001193BE4B1293BE4B0C93BE4B0D93BE4B51
:100400000E93BE4B0F93BE4B1093BE4B1393BE4B3C
:100410000A93BE4B0B93D0240022240691466368B6
:100420000132FF32134200D19CE101F03BFD002973
:1004300000D12CE1FA220023920002F0D3FB5346B4
:10044000C01AFA239B00984200D92BE14B46002B9F
:1004500000D110E12B00069A13CA13C311680020C3
:100460001960127929001A71102206F09FFC0020F1
:1004700006F062FC002006F05FFC642001F00CFC3A
:100480005B46042B00D95BE1129A9B00D3585A4675
:100490000593119B9B5C9B463300002240460599C7
:1004A00000F064FC002800D132E10120002140422C
:1004B00005F0D2F84346052090CB01F047FF7B00C2
:1004C000DB19DB00E418C8342768810E3B0C079366
:1004D0001B0299463F043F0EB9444A46002380015F
:1004E00002F080FBA02133680D9A08900093490028
:1004F0000C9B24A804F060FB24A90200002006F055
:1005000055FC002006F018FC002006F015FC0A241B
:10051000012000214042013C05F09EF8002CF7D15B
:10052000A021F3690E9A490024A804F045FB24A9F0
:100530000200002006F03AFC002006F0FDFB00203F
:1005400006F0FAFB0A34012000214042013C05F08C
:1005500083F8002CF7D1A021B269F3694900009219
:1005600024A80F9A04F028FB24A90200002006F01A
:100570001DFC002006F0E0FB002006F0DDFB0A3445
:10058000012000214042013C05F066F8002CF7D123
:10059000A021327C337D0292728A49000192727DE1
:1005A00024A80092109A04F007FB24A9020000205E
:1005B00006F0FCFB002006F0BFFB002006F0BCFBB1
:1005C0000A34012000214042013C05F045F8002C8E
:1005D000F7D1B268736A03927268A0210292222254
:1005E000B25C49000192328C24A80092139A04F064
:1005F000E3FA24A90200002006F0D8FB002006F050
:100600009BFB002006F098FB0A34012000214042A9
:10061000013C05F021F8002CF7D1A021089B0A9A93
:100620000293079B4900009301974B4624A804F0CE
:10063000C3FA24A90200002006F0B8FB002006F04F
:100640007BFB002006F078FB0A34012000214042A9
:10065000013C05F001F8002CF7D1012000214042B7
:1006600004F0FAFF0A24012000214042013C04F07A
:10067000F3FF002CF7D101200021404204F0ECFFF1
:10068000C9E6FA21890002F06FFA8246A5E6FA214E
:10069000890002F069FA5346C01AFA239B00984277
:1006A00000D8D3E601F0FEFB00294CD0FA2200234B
:1006B000920002F097FA099B8246002B4BD1D0237F
:1006C00008221B065A61149B0993BFE6B01E040062
:1006D000887B001000002050088536000C21002087
:1006E000BC7B0010CC7B0010807E00106C7E001064
:1006F000E07B0010E47B0010F47B0010087C00100D
:10070000247C0010447C0010747C0010A07C00103D
:100710002B000B9A13CA13C313CA13C313CA13C3F0
:10072000116800201960928829009A80292206F019
:100730003DFB002006F000FB002006F0FDFA91E7EB
:1007400000239B46A8E6FA21890002F00DFA099BD6
:100750008246002BB3D0D02308221B069A610023C7
:10076000099373E6082363612B00159A83CA83C338
:10077000126829001A6000200F2206F017FB0020E3
:1007800006F0DAFA002006F0D7FA802263685200F9
:10079000134209D101200021404204F05DFF802274
:1007A000636852001342F5D0D02308221B069A61D9
:1007B000149B994639E6C046F0B5DE4657464E468C
:1007C0004546E0B583460C00BDB0002900D168E184
:1007D000002800D165E1282200211EA802F094FD26
:1007E0006A464C2100235218138000231493189357
:1007F000179311931693013B0E93002315935B46B9
:1008000001250393EBB22900A748129302F0ACF93B
:1008100000231A901B931A9A1B9B13010693102313
:10082000110F07910F931D951C940121069A079BA8
:100830009E48494212184B411100002B3DD01A9995
:100840001B9A0F9B013398B2069B079C5B1854417F
:10085000069307944223FF330F909842E5D11D9DE4
:100860001C9C0135112DCDD10E9A531C00D118E1DD
:10087000179B2192159A1E931EAB1A74169A4C213F
:100880005A826A46521812889A822200119B249337
:10089000189B2593149B27931EAB23CB23C213CB0A
:1008A00013C213CB13C21B68136001203DB0F0BC10
:1008B000BB46B246A946A046F0BD7D4B9942BED884
:1008C000012300240893099401330B930124089A0F
:1008D000099BD1B21991FF21A246009201931140C8
:1008E0001091009A019B0698079902F07BF903008A
:1008F000704A013B8346934200D988E0039A830EF5
:100900008F011F4353080493002386010593049825
:1009100005998019794102F065F9041E00D099E02B
:100920000134022332AD013B24220021280002932E
:1009300002F0EAFC0023029A3000390002F052F97A
:1009400003998046411ACB17C8185840220000234B
:100950000A9181463900300002F044F90399431AA4
:10096000D9175A184A40914579D980469146210AAB
:1009700089B20C91E1B20D9102940A9301342200E4
:1009800000233000390002F02DF9039BC31AD91758
:100990005A184A40914508D980469146210A89B2A1
:1009A0000C91E1B20D9102940A9343466B600A9B4D
:1009B0000D9AAB604B46EB600C9B029C2B84222370
:1009C0002900EA5428A828226C6202F0A3FC0E9B9E
:1009D0004B451CD95B46039D282228A91EA82F93AE
:1009E000289502F097FC069B11934B46002B3DD0B7
:1009F0005346109A1B021A435B4618930F9B13929F
:100A00001693129B149415934B4617950E935346C9
:100A10000899099A0133DBB29A46009B019C5B1846
:100A20005441009301940B9B9A4500D059E7013340
:100A3000DBB214000B9300220B0001215B18544120
:100A400008930994082B00D040E7099B002B00D0A5
:100A50003CE7F4E60300022800D363E761E7029A6B
:100A6000130A9BB20C93D3B20D9387E7199B129A8A
:100A700098461EAB1A740F9A56465A8242461C9CE0
:100A80001A755E75069B4F462493230021971EAA74
:100A900023CA23C313CA13C313CA13C312681A6029
:100AA00003E7002002E7C046001BB700007C28E8EF
:100AB000008C86477FDF1710F0B5CE46474680B5DD
:100AC00004000D0016008BB0002853D000230160F5
:100AD000426083812A492800994606F085FE071E58
:100AE00048DB06AB984680234A465B020693F82310
:100AF000099242465B025360C0231B039360414648
:100B00001022A06002A802F005FCFB1C1B03FF01E1
:100B100010223B4302A94046039302F0FBFB194B12
:100B20000E20EF183F0D0637FFB2390000F046FAED
:100B300039000F2000F042FA4346DA68124B0127D1
:100B40001A40124B3100134342462800D360012360
:100B50000E22009706F0C4FE4346A268310028002A
:100B600006F018FF3A00B2402B68012093432B6037
:100B7000277300E000200BB0C0BCB946B046F0BD02
:100B8000887E00100000E0AF1FFCFFE3C0010004FE
:100B9000054B064A10B50021D8601A6100200022DA
:100BA00001F03EFEFEE7C046008005402138544675
:100BB000F0B54E464546DE465746E0B504000D000A
:100BC00091461E0095B0002804D0037B002B01D075
:100BD000002908D10027380015B0F0BCBB46B2464A
:100BE000A946A046F0BD0AAB98462822002118006D
:100BF00002F08AFB41462800FFF7DEFD071EE9D020
:100C00004B46002B00D0ABE042469269414604922D
:100C1000012243466068C96982408A469B8A2168EE
:100C200005930B68052093430B6001F08FFB504543
:100C300011D0EFF3108972B6059B04981A0AD9B245
:100C400001F08AFB5346002200210093062001F0A8
:100C500007FA89F31088052001F078FB8146002807
:100C6000B8D00021830E0393830102936808029A8F
:100C7000039B801859412A00002301F0B3FF8446EA
:100C800000280FD0030A9AB2C1B208920991002A33
:100C900002D1C2B2002A9DD00006000C1B041843EA
:100CA000079008E080235B000793FF3B0993002334
:100CB000089301339C460120616822680B1D98400F
:100CC00080238B469B01D318186006914B00264960
:100CD0005B448B468021DB00D01858440906D318AA
:100CE0000160016018000799C83001601F20A168E9
:100CF000D833084018600120069913688840010025
:100D00001943012311606373002E00D163E743464A
:100D1000059A9A82049A9A615246DA6133004246F1
:100D200013CA13C313CA13C313CA13C312681A60B6
:100D30004B46F36163467362089B099A338422230E
:100D40003560F254002302980399624601F04AFF8D
:100D50007060401BC317B060C0185840F0603AE79D
:100D60002800FFF715FFC046D0100000F0B54E4632
:100D70004546DE465746E0B504000D0091461E008C
:100D800097B0002804D0037B002B01D0002908D1A4
:100D90000027380017B0F0BCBB46B246A946A046B3
:100DA000F0BD0CAB984628220021180002F0ACFAE6
:100DB00041462800FFF700FD071EE9D04B46002BF7
:100DC00000D0B4E042469269434605920122414672
:100DD00060689B8A8240C96906938A46617B0520C8
:100DE000079121680B6893430B604946617301F0DA
:100DF000ADFA504511D0EFF3108972B6069B0598F5
:100E00001A0AD9B201F0A8FA534600220021009331
:100E1000062001F025F989F31088052001F096FAE3
:100E200081460028B4D00021830E039383010293EE
:100E30006808029A039B801859412A00002301F098
:100E4000D1FE844600280FD0030A9AB2C1B20A929A
:100E50000B91002A02D1C2B2002A99D00006000CE0
:100E60001B041843099008E080235B000993FF3BB3
:100E70000B9300230A9301339C460122606821688A
:100E8000031D9A40802383469B01CB181A6008906B
:100E9000430028485B4483468020DB00CA185A443C
:100EA0000006CB18106010601A000998C832106054
:100EB000A268D83393461F22584602401A60079B07
:100EC000002B2BD1002E00D163E74346069A9A826D
:100ED000059A9A615246DA613300424613CA13C337
:100EE00013CA13C313CA13C312681A604B46F361C3
:100EF000634673620A9B0B9A338422233560F25453
:100F0000002302980399624601F06CFE7060401B5A
:100F1000C317B060C0185840F0603AE70122089843
:100F20000B6882401A4301230A606373CAE72800F2
:100F3000FFF72EFED0100000004870472080001000
:100F4000004870479C7E001070B5002823D006280A
:100F50002CD8174B8000C558280006F069FDC0B298
:100F6000041C1F2812D8E4B2002808D00023114A1C
:100F7000E95C01331180D9B202328C42F8D8C02228
:100F80000134E3B25B00920013430CE01F24E4B28F
:100F90000028EBD1F3E7064B02221968054802F05E
:100FA000B9F9C1239B000448038070BD0020FCE711
:100FB000780F0020EE140020EC140020094A830072
:100FC0009A1810B514684022544080322240064CD2
:100FD000C000A44663441A60044B9C4660444160D0
:100FE00010BDC04604C0014004D001400040014093
:100FF0000123D0228340120693629361094A830041
:101000009A1811684022514080320A400649C000B7
:101010008C4663441A60054B9C460523604443603C
:101020007047C04604C0014004D001400040014068
:101030008023DB051868000F7047C0460FB400B569
:10104000084883B003F046FF049B002B07D005A996
:101050001800019103F0C4FD034803F03BFF012099
:1010600003F0D6FD1C7D0010C87C0010EFF310804B
:1010700072B6034A1368002BFCD0BFF35F8F704732
:101080002C0100D0BFF35F8F0022024B1A6080F367
:10109000108870472C0100D070B5EFF3108C72B639
:1010A0000D4D2B68002BFCD0BFF35F8F0724CB08BE
:1010B000C618C05C01230C40A3401C00044003423E
:1010C00007D118433070BFF35F8F2C608CF310880A
:1010D00070BD1000FFF7B2FF2C0100D0F8B54746F5
:1010E000CE46884680B5EFF3108C72B61C4D2C6846
:1010F000002CFCD0BFF35F8F9A4222D80721012633
:10110000894602E00132934218D34D46370015401C
:10111000AF40D4080119045D2742F3D110003C43CD
:101120000C70BFF35F8F00220D4B1A608CF3108898
:1011300000280EDBC0BCB946B046F8BD01204042D5
:10114000EFE7BFF35F8F00232B608CF31088012043
:1011500040424346002BEDD00898FFF76FFFC04692
:101160002C0100D0044A1078431CDBB2172B00D9A5
:10117000102313707047C046940F002010B5064B23
:10118000064C82B00100009318221F232000FFF7B5
:10119000A5FF02B010BDC0462C7D001064170020D2
:1011A0000021044B044ABFF35F8F02C39342FAD17C
:1011B0007047C046000100D0800100D0054B064AB0
:1011C0001360064A136053609360D36013615361E8
:1011D000936170478080808000E400E004E400E0D8
:1011E0001F2318401E3B8340002905D0C021044A1C
:1011F0004900535013607047802201498B50FAE731
:1012000000E100E070B50D00EFF3108672B60F4AF2
:101210001368002BFCD0BFF35F8F0D4B10309B6821
:1012200084001B590B4A934203D09D4201D001F028
:1012300095FB074B9B681D51BFF35F8FBFF35F8F1B
:101240000022024B1A6086F3108870BD240100D082
:1012500000ED00E0CD010010F0B557464E46DE46E9
:101260004546E0B585B0060000911700EFF3108BFE
:1012700072B66A4A1368002BFCD0BFF35F8F00255B
:10128000674B5D579A46002D00DAA9E06B00654C6C
:1012900001935B199B009846A146C1444B465246B8
:1012A0009B7910361370604BB6009B6899590B1BE5
:1012B0002F2B33D95D4B994200D0ACE0019B4246C5
:1012C0009C465B4B6544AD0063535A4B0232A218F7
:1012D000043B9B1A1B05584A5B0D651913436B8031
:1012E000564B0121AB80FF23AB71009BEF71AB60CC
:1012F0004B460B4319004C4B9B689951BFF35F8FD2
:10130000BFF35F8F0022454B1A608BF3108805B046
:10131000F0BCBB46B246A946A046F0BD01200A007B
:101320008243D3798C46BB4231D8454613004449A9
:101330001B1B5B415943090D3D4B63533D4B02352C
:101340006519043B5B1B1B053B4D5B0D2B43AA46FC
:101350004D466B800425AC465546E044131F44447B
:101360001B1B1B055B0D1D434B46997100999D800E
:1013700099604946DF71334B01431360BBE7580066
:10138000C01880002018C179B9422FD90200062365
:10139000D356002BF3DA02932B4B61460393131DB4
:1013A0009A4604235B429C46E14450464B461B1A36
:1013B0001B055B0D9C46204B957198466346404645
:1013C00003439380019B5A199200039BA418A380A6
:1013D000029B1C4AA371009B2260E771A3608AE70D
:1013E00001F0BCFA002553465D574FE79088029301
:1013F0004005131D9A46031561469C464046D44459
:10140000634604302018181AE0230005400D1B0223
:1014100018430390C5E701F0A1FA4FE7240100D07B
:10142000682B0020980F002000ED00E0CD01001097
:1014300000A1FFFFC80F002000E0FFFF01BDFFFF7C
:10144000AAAA00000148804701BD0000F0B5DE46B1
:1014500057464E464546E0B50C0083B0EFF3108882
:1014600072B6634A1368002BFCD0BFF35F8F614BE9
:1014700061499A68030010339F00D55901938D424A
:1014800043D0A54254D05D4EAA1B2F2A3DD85C4BB9
:101490009B461B68994601231A009C4682404B4696
:1014A00013401F2299466346024093409A46802289
:1014B0005B4650469850BFF35F8FEFF305839B4622
:1014C000002B37D0019B5B4501D001F047FA012387
:1014D0002A009A439068844208D176E04B005B185A
:1014E0009B00F3189868844236D01A0006215156A2
:1014F0000029F3DA844254D04B46002B27D0C02277
:1015000051463F4B5200995019603A4B9B68DD5150
:10151000BFF35F8FBFF35F8F0022354B1A6088F3F4
:10152000108803B0F0BCBB46B246A946A046F0BD49
:101530000D00EAE72A0063469A4390688442D5D1B9
:1015400006201056130000280ADA0D0031E080232F
:1015500051462B4AD150D8E706201856002821DBE7
:1015600042001118890074188B46A1689960E179CE
:10157000D971062161569971002924DBA488F11ADA
:10158000640524155C44091909051E4C490D2143C5
:10159000998013181C4A9B001178F31899711070E8
:1015A000AAE713005946002914D1FF319171174958
:1015B000918015490A789A71154A9B1B5B415A43E1
:1015C000120D0A7098E71149E2E706201056130041
:1015D0000028C5DA0F4A1049D21A083A5002400DC5
:1015E000014399800D4952080A43DA8084E7C046D6
:1015F000240100D000ED00E0CD010010980F002084
:1016000000E100E000E0FFFF682B002001BDFFFFCC
:10161000AAAA0000D20F002000F0FFFF00F8FFFF91
:1016200070B501240443EFF30581EFF3108C72B61B
:10163000214A1368002BFCD0BFF35F8F1F4B0500BE
:101640001F4AED1A6D416A43120D1E4D8900AE68A6
:1016500052B27658A6421CD00621595691421CD04F
:1016600012215956914222D01E215956914220D022
:101670002A2159560324914210D0134B19781A701D
:101680008171BFF35F8F00220B4B1A608CF31088BF
:1016900070BDAB680D4C5C50EFE700246100091988
:1016A00089005B18FF21997109499980E5E70124B8
:1016B000F4E70224F2E7C046240100D0980F00208E
:1016C000AAAA000000ED00E0682B0020CD01001068
:1016D00001BDFFFF024B9C466144890001607047D9
:1016E0004000003470B5114C114DAC420FD2FF26B2
:1016F0002368002B0CD0FFF735FD01002000FFF719
:10170000E9FFA680BFF35F8F0834AC42F0D370BD11
:10171000FFF728FD01002000FFF7DCFF2671BFF373
:101720005F8F0834AC42E3D3F1E7C0465810002085
:101730006810002010B50400FFF714FD0100200020
:10174000FFF7C8FFFF232371BFF35F8F10BDC046B3
:1017500010B504000120FFF711FD034BC3189B00D7
:101760002360BFF35F8F10BD400000340A4B19683F
:10177000EFF3108072B60A68002AFCD0BFF35F8FC7
:101780001B68BFF35F8F00221A6080F3108840BF90
:10179000002000217047C046582B0020F0B5DE46DF
:1017A00057464E464546E0B587B0EFF30582032322
:1017B000012513409D409900B34AB44B54581D6015
:1017C000B34B8846A946049329E0A3881BB2002B9B
:1017D00000DBA5E0A379002B00D0E6E00823E05E63
:1017E000002800DA0FE1430062691B18DB00D31800
:1017F0009E68DD68731C00D111E1A64B19004144BD
:101800009A6A0B69B01A9B1A984200D20E61A148DD
:1018100000F040FB8D4200DDF5E000D12BE14B46AE
:101820009C4843630823E55E002DCEDB62696B00B4
:1018300092465B19DB009A4453469E68DF6800F0CD
:1018400029FB8F42C1DC00D10BE1002F00DAF0E070
:101850005246534652691B699346049A934200D1FB
:10186000E1E052460821605E528800045946104368
:101870009847029003910299039A0B0010001343BA
:1018800000D1D6E013000A00B61A9F41002806DBFB
:10189000804800F0FFFA029E039F36184F415346DE
:1018A0009E60DF6000229A5E002A8EDB530099184A
:1018B0006069C900411801938B68C9689B46B942A9
:1018C00000DD82E702D1B34200D97EE708239C46BF
:1018D000A444059565462281A446019B2C0006E0A0
:1018E00053009918C90041188D68C968AB469B1808
:1018F000DB00C318B94206DC00D1C0E01C000023A5
:10190000E25E002AECDA230064469C4653461A80C5
:101910006346059D1D80A3881BB2002B00DA59E7A2
:101920002269EFF3108172B61368002BFCD0BFF36D
:101930005F8F0123A7885B42A3803FB22369BFF377
:101940005F8F00221A6081F31088002F00DA41E7D0
:101950002300083322009A4666697B00DB19DB000E
:10196000F318996850468C460824115FDD680029F9
:1019700010DB019306E0AB424DD00023E15E200076
:10198000002906DB4C006418E4003419E368AB421C
:10199000F1DD019B078000201F5E1980002FDCDA3B
:1019A0001400A379002B00D118E70023A3712600AF
:1019B0000823E15E08364B1C25D00800A246656965
:1019C00002E03E004B1C1AD04B005B18DB00EF1806
:1019D0000A008C46E95E7B881BB2002BF1DA0123FA
:1019E0005B42DC17BB60FC60824205D0534631800D
:1019F0001B893B8053461A8160464B1CE4D15446F8
:101A0000002800DBEFE640BF07B0F0BCBB46B246A3
:101A1000A946A046F0BDA3686345AED9B9E76B1CE3
:101A200000D0EAE6F3E65B4658461B699847002873
:101A30001BD153461B8822692381EFF3108372B6B2
:101A400011680029FCD0BFF35F8F514662880A807D
:101A500022696580BFF35F8F0021116083F31088D6
:101A6000B3E6864200D8F0E6AFE65B461A685B68EC
:101A700002920393FFE6864200D8D0E6C3E7B3455F
:101A800000D83BE73FE7C0463C2A00203C700540B9
:101A90009D1700100040054070B52E4C2569002DA3
:101AA00004D00A212C48FFF715FE70BD2B4E0321F0
:101AB000300000F0E5F9E660FFF754FB284B032205
:101AC0009C46D02322701B061B6801216370254BA6
:101AD0006044A3600F23800020610220638063695B
:101AE0004942A18019800231198647311D8358521D
:101AF00018315A5275325C39995218320131995263
:101B00001832013199521832013199520835183280
:101B10009D520231183299521832013199521832BD
:101B200001319952183201319952183201319952CA
:101B30001832013199520C4B0C49DC60013035628E
:101B4000FFF760FB01210320FFF74AFB084B1D60F4
:101B5000A7E7C046E00F0020582B002000400540BA
:101B600040000034FFFF10003C2A00209D170010A9
:101B70003860054070B501000469EFF3108C72B64F
:101B800020680028FCD0BFF35F8F02200D5E4C69F7
:101B900068004019C00024180869002D36DB26882B
:101BA0004E80BFF35F8F002606608CF31088E360E1
:101BB00063880498013320615B0405985B0CA26084
:101BC00060611A1C002B1FD093B228046280184356
:101BD0000A69EFF3108C72B61368002BFCD0BFF3C8
:101BE0005F8F8B8823808D800B69BFF35F8F00220E
:101BF0001A608CF310880B7801329A40CB68084940
:101C00008C4663441A6070BD0122DDE7BFF35F8F2D
:101C1000002303608CF3108801204042F3E7C046A4
:101C20003C20000010B543890A1493421ADD53008A
:101C30009B184269DB00D3180469EFF3108C72B66D
:101C40002268002AFCD0BFF35F8F5A88090494B23F
:101C5000090C8A4208D00369BFF35F8F00221A6023
:101C60008CF31088002010BD8022120214435C8087
:101C7000012302698371BFF35F8F002111608CF330
:101C80001088044902788C469340C268012062445F
:101C90001360E8E73C200000F0B5C64600B582B00E
:101CA000040000F0FFF8FA2206000F0020000023D5
:101CB0000021920001F0D2FA8019794104000D1E32
:101CC00002DA01242E4D644206267642F7173619B1
:101CD0006F41AF4214D811D000F0E4F832003B005D
:101CE000121A8B41002B15DC002B46D02000290056
:101CF00000F016F902B080BCB846F0BDA642EBD9A0
:101D00000026002700F0CEF832003B00121A8B416B
:101D1000002BE9DD00F0C6F832003B00121A8B41BF
:101D2000002B0ADB00230193164B32000093164868
:101D30003B00FFF71FFF0130D8D000233900B04629
:101D40009C46124A1248536A994204D8966A4645FC
:101D5000CCD29942CAD10668EFF3108772B63368C5
:101D6000002BFCD0BFF35F8F0368BFF35F8F664625
:101D70001E6087F3108820BFE5E7002AB6D0C9E7C8
:101D8000FFFFFF7F6D170010E00F002000400540AF
:101D9000582B0020F0B5CE46474680B504000D0014
:101DA00083B0EFF3058399460F00002B42D1314EEB
:101DB000A0463378F06804339B00816A1B58601A90
:101DC0005B1A984212D320BF2B4900204B6AAB42CA
:101DD00007D38A6A5B1B591E8B4141468A424041A8
:101DE000184303B0C0BCB946B046F0BD00F05AF885
:101DF00022002B00121A8B41002B28DB4B4601934B
:101E00001E4B2200009330002B00FFF7B3FE011E93
:101E10001DDD194B5A6AAA422AD39B6A9C4225D8D7
:101E20003000FFF7FFFE144A0020536ABB42D8D3AC
:101E3000926ACFE7104900204B6AAB42D1D38A6A3D
:101E40005B1B591E8B41A24240411843C9E70A4A15
:101E50000020536ABB42C4D300204146926A5B1BF8
:101E60008A4240415A1E93411843BAE7AA42D7D149
:101E700020BFD5E7E00F0020004005406D1700109F
:101E800010B5024A0248FFF707F910BD487D00105F
:101E9000681700200300416A0A00986A596A8A425A
:101EA000FAD17047034B596A0A00986A596A9142FD
:101EB000FAD170470040054070B504000D00174A84
:101EC000536A1900966A536A8B42FAD1300019009E
:101ED00024184D41AB4216D813D0104B2A005B6A30
:101EE0009D4203D90D494B6A9342FCD3934207D1DB
:101EF0000A4A02E0516A994202D1916AA142F9D399
:101F000070BDA642E9D9054B5B6A1C005A1CEFD094
:101F1000012201246442E5175242E3E700400540F4
:101F2000064A536A9942FCD807D1044B02E05A6A28
:101F3000914202D19A6A9042F9D870470040054018
:101F4000F8B5040006200D0000F000FA002844D087
:101F5000374B3849E3185A1E9341802212049446A5
:101F60005B429B0D344A9B0563441360334A136004
:101F700018000A689043FBD12D4B314AE3185942AF
:101F80004B4180215B0049000620995200F0DEF9A8
:101F90002900C00000F0E8FD0130C3091ED1402730
:101FA00001226262A362266BF30722D4E36A254B07
:101FB0000620E51800232B60266300F0C7F93900DE
:101FC000800000F0D1FD7023E26A5A400E331340C6
:101FD0002B601D4B23630323A364F8BD1B4A93426C
:101FE0001ED900231A4A1B4F6262A362266BF307B5
:101FF000DCD5194B144AE3181A60656AA36A0620F7
:10200000AD01ED1800F0A2F9144900F0ADFDAD02EC
:102010000100280000F0A8FD0021FFF74DFFC5E7F3
:102020004006800E9F011A003F180300B9E7C04622
:102030000080FCBF08C0004000E0004000F000400D
:102040005C2B00202C10000001030000FEFF0000AC
:10205000FFFF0000C0FF3F00303000004E0E0000C8
:10206000F8B557464E464546DE46E0B516000A9A94
:1020700005000F0000209A4205D9F0BCBB46B246CD
:10208000A946A046F8BD1A0E92461C022000002365
:1020900051460A9A00F0A6FD0023020051468046F0
:1020A000200000F09FFD304B6C009C466419A4009A
:1020B000644463688246984501D9434663602B1F98
:1020C000DBB29946012B2CD9C02380229B01E31857
:1020D00012011A60254BAD0059599B46002907D0C3
:1020E000586900F041FD013043001B18033BFDD24D
:1020F0007301E026226853401E4080234A465B015C
:10210000E3181E60012A23D9802380229B01E31853
:1021100012011A604346524663605B4601205A51E1
:10212000ABE7012FD0D1C02303229B01E3181A6033
:10213000023AA3681A42FCD07301E0262268AD007F
:1021400053401E408023094A5B019346E3181E60FA
:102150000322216879400A401A600122BA40A3682C
:102160001A42FCD0D0E7C046008000406C17002027
:10217000F8B5DE464E4657464546E0B58B46050067
:102180000A991800160000F0EFFC0A9B6C001F0271
:10219000324B64199C46A4006444636881469F42A4
:1021A00000D967602B1FDBB29846012B30D9C023C2
:1021B00080229B01E31812011A60294BAD00595986
:1021C0009A4600291BD17301E026226853401E4025
:1021D000802342465B01E3181E60012A30D9802328
:1021E00080229B01E31812011A6053464A46676039
:1021F0005A51F0BCBB46B246A946A046F8BD586944
:1022000000F0B2FC013043001B18033BFDD2DAE7BB
:102210005B46012BCBD1C02303229B01E3181A603C
:10222000023AA3681A42FCD07301E0262268AD008E
:1022300053401E4080230A4A5B019246E3181E6009
:102240005A462168514003220A401A6001225B4627
:102250009A40A3681A42FCD0C1E7C0460080004003
:102260006C170020F0B546464F46D646C0B51F0055
:10227000344B44009C462418A40064446368884698
:102280001600FF2B02D880235B006360031FDBB2C4
:102290009A46012B30D9C02380229B01E3181201FA
:1022A0001A60294B85005959994600291BD17301A1
:1022B000E026226853401E40802352465B01E3180B
:1022C0001E60012A30D9802380229B01E31812016D
:1022D0001A6080235B0063604B465F51E0BCBA46E6
:1022E000B146A846F0BD586900F03EFC01304300FD
:1022F0001B18033BFDD2DAE74346012BCBD1C023A9
:1023000003229B01E3181A60023AA3681A42FCD028
:102310007301E0262268850053401E4080230A4A4C
:102320005B019146E3181E6042462168514003223A
:102330000A401A60012342469340A2681342FCD02F
:10234000C1E7C046008000406C170020014B8000B0
:10235000C05870476C170020F0B54746CE4680B590
:102360005B4B16005A680700884683B0FF2A02D8E4
:10237000802252005A600322564B554D1A600123A9
:10238000AC682342FCD0202229685140C0320A4068
:1023900051490A602A684E4D5A40032313400B608E
:1023A0000223AC682342FCD080224C4B12011A60FD
:1023B00080235B006B604A4C99464A4B3A0063614C
:1023C000012143464848009600F0D8F941463800BC
:1023D000714300F0C9FB454B05005A68FF2A01D83C
:1023E0004A465A608022424B12011A602169002934
:1023F00007D0606900F0B8FB013043001B18033BB5
:10240000FDD2E023394A3B4811680B4003600223A8
:102410001168594001330B4004210360936819424D
:10242000FCD08021344B090119608021334B4900D5
:1024300051602361264B5A68FF2A00D85960032255
:102440000121244B1A60224A93681942FCD0E023F0
:102450001068034020480360126803234A400221A9
:1024600013401B4A036093681942FCD080211B4B28
:10247000090119608021224B4900516065615A6849
:10248000FF2A00D8596080221E4B12011A60A169F0
:10249000002907D0606900F067FB013043001B187A
:1024A000033BFDD2402316490A685A40A03313402B
:1024B000154A13608022154B12011A6080235B00BD
:1024C0004B60084BA36103B0C0BCB946B046F0BD39
:1024D0003C8000403CB000403C9000403CA00040AC
:1024E0006C170020006CDC0200800240308000404D
:1024F00030B000403090004030A00040001BB700DA
:102500004880004048B000404890004048A000404B
:10251000F0B54E46DE4657464546E0B51600924AAF
:1025200085B09346A022520091465A4603969B4698
:10253000060001920291019B8C4A93420DD901231E
:102540005B429C468A4AE1449446019B6344019362
:102550004B460F2BEFD100208EE01F00854B072448
:102560009C4667442300634338001900984600F0F6
:10257000FBFAA246651E864250D06C43380021000B
:1025800000F0F2FA864259D06B1E9846012D00D118
:10259000D3E05346E41A2100380000F0E5FA864201
:1025A00058D0AB1E9846022D00D1B9E05346E41A2C
:1025B0002100380000F0D8FA864264D0EB1E98461D
:1025C000032D66D05346E41A2100380000F0CCFAFF
:1025D000864200D172E02B1F9846042D00D174E092
:1025E0005346E41A2100380000F0BEFA864200D1BA
:1025F0007DE0052D00D17FE053463800E11A00F060
:10260000B3FA06248642ADD10029ABD1C8465B4659
:10261000D14601250298039E26E0A846414638008F
:1026200000F0A2FA002900D197E0651EA2466C4393
:102630003800210000F098FA8642A5D12100380028
:1026400000F092FA00299FD1C8465B46D146029815
:10265000039E09E00029A4D15246C2465B46C84603
:10266000554691460298039E4246434951434A4685
:102670000160012032601D6005B0F0BCBB46B2466F
:10268000A946A046F0BD0029E6D0EB1E9846032DD2
:1026900098D1092138000324092500F065FA864203
:1026A000BBD00323062138009A460334073D00F0CF
:1026B0005BFA8642C2D0012398466AE70029CBD054
:1026C0002B1F9846042D00D08AE704240C353B09C3
:1026D0009E42A2D004230C2138009A4608340D3DB6
:1026E00000F042FA8642A9D00223984651E7002919
:1026F000B2D0052D00D07FE719213800192500F050
:1027000033FA864226D01421380000F02DFA052332
:1027100014249A4686421BD0023B9846153D38E762
:10272000042302249846BB089E4200D176E7A246C5
:10273000013D7B089E4200D180E7B74200D0FEE613
:102740000122C8465B46914601250298039E8BE70D
:10275000042573E7A846052460E7C8465B46A14602
:1027600025000298039E7FE750262F0050F80C00AA
:1027700020D1FFFFB0710B00001BB700F8B50400BB
:1027800021481E0017000D0000F0EEF9010038008E
:1027900000F0EAF9069B36041B031E432368002B56
:1027A00020DB1A4B1A49E3185A1E934180229201EA
:1027B00094465B421B0B174A1B0363441360164A83
:1027C00013601F000A689743FBD1144B2560E21881
:1027D0002123A06013602368002BFCDA0823E66045
:1027E0001360F8BD3F2322681340AB42D9D1A368E0
:1027F0001B051B0D8342D4D1EE22E368D2021340A5
:10280000B342CED1EDE7C046001BB7000040FDBF8C
:1028100008C0004000E0004000F00040043000002C
:1028200010B580241C4BE4051C6000281AD001233D
:102830001A4C18431A4BDC611A4C44401C62596212
:1028400098628021144BC905196017481749086020
:10285000E021C9041960002A07D18022144B120616
:102860001A6010BD0E4BD861EBE753019B1A9B0019
:102870009A18802312015B049A4209D213000D4971
:102880000B60074B5A608022094BD2051A60E8E7BB
:10289000094B1A00F3E7C04600B00540D3C007B0AB
:1028A000008005402D3FF84FFCFF0100082001404B
:1028B00000A005401C2A0020FFFFFF008023024AE1
:1028C0009B000B43D362704700800540002310B586
:1028D0000100988A1B8B984710BDC046162310B57F
:1028E0000100188802331B88984710BDF8B5474689
:1028F000CE4680B50F1E18D0142399460433040029
:102900000025012698464B461888434621681B88B7
:10291000984701C4431E984101350640AF42F2D1A9
:102920003000C0BCB946B046F8BD0126F8E7C04645
:10293000AA23064A1B0113602F230549D360054BC8
:1029400019605368002BFCDA7047C0460040024013
:1029500000B0FA00006002407047C04610B5014860
:10296000FEF76CFB6C7D001070B5074D074EB5424D
:1029700009D20024013E761BB60808CD98472300F3
:102980000134B342F9D170BD407B00107C7B001054
:10299000054B064A06491A60064A074B1A601000A2
:1029A0000B689843FBD1704700E00040BFCDFBFEB1
:1029B00008C00040FE7F3C0000F00040044BDB6C90
:1029C000002B03D18022034BD2021A607047C0460D
:1029D000000011504C201150044A054B1A60054A62
:1029E0001368DB018033FBD17047C046FFFFFF0156
:1029F00000F0004008C000404022034B9A675A672D
:102A00001A67DA667047C04600F0014010B5FEF75D
:102A1000C7FB10BD70B5044D044CA968C02220004E
:102A200000F078FCAC6070BD00ED00E0000000201C
:102A3000002310B5294C82B0A367FFF779FF01226C
:102A4000274B1A60636C012BFCD10322254B1A60C3
:102A5000224A936B012BFCD1013300930121224ABE
:102A600022480433FFF78AFE052301210093204A00
:102A70002048FFF783FE0022022104201E4BFFF7AF
:102A8000F1FB0022012105201C4BFFF7EBFB00228C
:102A9000002107201A4BFFF7E5FB00220021082048
:102AA000174BFFF7DFFB8023DB00009300220021A0
:102AB0000920134BFFF75CFB0022104B002106207E
:102AC000FFF7D0FB0420FFF741FC0E4900F04CF863
:102AD00001000020FFF7F2FE02B010BD00800040B0
:102AE0003CB0004030B00040002F685900800240E8
:102AF000008C864700C00240001BB7004059730796
:102B0000006CDC0240420F0001480421014B1847D1
:102B100000100020ED280010124A936F9B0815D278
:102B20009066D166002905D0FFE7FFE7FFE7516F08
:102B3000106F704704B580210906C2175140002864
:102B400000D0C84304F0BCFF002104BDF0B5146EF2
:102B5000556E576F166FFFF7E3FF1466556657679C
:102B60001667F0BD000000D0114A936F9B0813D286
:102B700010665166002905D0FFE7FFE7FFE7516FB8
:102B8000106F704704B5002801D00020C04304F046
:102B900097FF002104BDC046F0B5146E556E576F07
:102BA000166FFFF7E5FF1466556657671667F0BDA9
:102BB000000000D094464A4A926F9208624601D2C1
:102BC00028E0C046F0B5464E346E756E776F366FAE
:102BD00000F020F89446424A146655665767166717
:102BE0006246F0BD94463E4A926F9208624601D218
:102BF00054E0C046F0B53A4E346E756E776F366F5E
:102C000000F04CF89446364A1466556657671667C6
:102C10006246F0BD002B24DB11D000293EDA00B55E
:102C2000C943404200D1013100F038F8C943404265
:102C300000D10131DB43524200D1013300BD002AF3
:102C4000EBD1002801D1002905D00020C90FC90708
:102C500001D1C043410800B504F02AFF002200233F
:102C600000BD00B500290ADBDB43524200D101332D
:102C700000F014F8C943404200D1013100BDC943FE
:102C8000404200D10131DB43524200D1013300F018
:102C900005F8DB43524200D1013300BD002923D1A6
:102CA000002B18D1002A0CD0BC460D4F38667A662E
:102CB00000210023FFE7FFE7FFE77A6F386F6746E1
:102CC0007047002801D00748010000B504F0F0FE6D
:102CD0000022002300BD02000B00002000217047ED
:102CE000000000D0FFFFFFFF002B00D0BFE0130C5F
:102CF00028D1002AE7D080B4114F39667A66FFE701
:102D0000FFE730B4040C7B6F396F1B0423433B6631
:102D10007A66FFE7FFE7FFE7C04684B27B6F3D6F4F
:102D20001B0423433B667A66FFE7FFE7C0460023A8
:102D30002C042D0C7A6F386F00196941B0BC7047B4
:102D4000000000D0F0B594460025140E01D1120207
:102D50000835140F01D112010435940F01D19200EE
:102D60000235D40F01D152000135D40B0134254F67
:102D70007C66254C3C660E0C93B2FFE7FFE7FFE74D
:102D80003C6F6643360C7703BE467343DF0B5B0430
:102D9000C01AB941130C7343DB18C91ACE08664335
:102DA000360CB64493B273431F0F1B01C01AB941CE
:102DB000130C73431F0B1B05C01AB941860D8F02FC
:102DC0003E436643360C092D24DB520A7243801AB7
:102DD0007703460A6643360C16235B1BDE40DF4052
:102DE000BF1964466643821B7046043506330100F2
:102DF000D940A840C01900D30131A24206D2002315
:102E0000F0BD0000000000D0FFFFFFFF121B0130EB
:102E1000F3D3F1E709277F1BFE406446A2B2724359
:102E2000801A00D20139220C7243130C1204821A48
:102E300099410B007046043513370100F940A84052
:102E4000801900D30131002B02D1A2420AD2F0BD79
:102E5000013000D30131121BFAD2013BF8D1A2425A
:102E600000D2F0BD013000D30131121BF7E7F0B5FD
:102E70001C0C00D080E00CB400251C0A04D11B02FD
:102E8000160E3343120208351C0B04D11B01160F1A
:102E90003343120104359C0B04D19B00960F33433E
:102EA00092000235DC0B02D192185B4101351C0007
:102EB000971864410134464F7C66464C3C660E0CC4
:102EC000FFE7FFE7FFE7C0463C6F6643360C77033A
:102ED000BE4697B27743C01B00D20139C01B00D257
:102EE00001399FB27743C91BC91B170C77437E0476
:102EF000FF0B801BB941CE086643360C0C2D33DB2B
:102F0000B644120B1F053A431B0B97B27743C01B05
:102F100000D201399FB27743C91B170C77433E0497
:102F20003F0C801BB941860D8F023E436643292723
:102F30007F1BFE400C3D7746AF40BF1930BCA2B2AC
:102F4000ABB272437343801A9941220C7243130C43
:102F50001204801A994102000B000137001BA9419D
:102F6000F9D2781E0021F0BD0C277F1BFE4077466A
:102F70007F0BAF40FF19E0E700245D1C07D0144F22
:102F80007D663966FFE7FFE7FFE7FFE73C6F95B235
:102F90009EB265436643401BB141150C1E0C654350
:102FA000664336042F0C3E432D04401BB141994229
:102FB00004D202000B0020000021F0BD01D190429C
:102FC000F7D3801A994101349942F2D3F6E7000011
:102FD000000000D0FFFFFFFF48404140484018B4C8
:102FE000134B5B68019308BD18B4114B1B68019328
:102FF00008BD94460F4A926F920805D2624618B4F3
:103000000B4BDB68019308BD0A4AF0B5146E556E90
:10301000576F166F6246FFF7F2FF064A1466556651
:1030200057671667F0BD18B4014B9B68019308BD44
:10303000E8110020000000D0FFB550404240504051
:1030400059404B40594000E0FFB5154F4C00640D0E
:1030500003D0BC4204D10C0314D80020090D09058B
:103060005C00640D03D0BC4204D11C030AD80022CA
:103070001B0D1B0501264B4009D44B4003D58B4249
:1030800000D18242FFBD9942FCD19042FFBD0B436B
:10309000DB1803431343F5D0C9434918FFBD0000B3
:1030A000FF07000000B5FFF7CFFF804100BDC0461D
:1030B00000B5FFF7C9FF01D9002000BD012000BD08
:1030C00000B5FFF7B9FF01D9002000BD012000BD08
:1030D00000B5FFF7B1FF804100BD012040054A0067
:1030E000121804D85A00121801D800207047012085
:1030F000704700000021002805D17047C1174840E3
:10310000401AFAD0C90713B5064B1B6898470CBC88
:10311000441CA2401005120B0349091B0905194361
:10312000114310BD542A00201F04000010B54C00AC
:10313000620D8023D218DB00D21A5B057E2A10DDD7
:103140009E3A13DACC170903490819435242D14079
:10315000640001341532202A05DAD0400843604368
:1031600010BD002010BD0846604310BDC80FC01838
:10317000013810BD18B4024B5B6A019308BD000012
:10318000E811002010B50148FDF758FF787D0010C8
:10319000132370B51D78012D19D014DD1D48FFF7DC
:1031A0009DFB06001C48FFF799FB1C4C8022310058
:1031B000200000F0AFF8022D06D01948FFF786FB7B
:1031C000184B186070BD154C174BA364F5E7174BEF
:1031D000124C23606360A360E36023616361A361B9
:1031E000E36123626362A362E36223636363A363B5
:1031F000E36323646364A364E36423656365A36595
:10320000E36523666366A366E36623676367A36774
:10321000E367D9E75344000053460000E81100205B
:103220004C330000542A0020313200108531001048
:1032300007B5604601880A0A0230DF2AFAD1C9B20E
:10324000820804D3028840880004104300E000682C
:10325000014A5050039007BDE811002051434343F9
:10326000C9188C46110C83B24B4310B4040C614353
:1032700092B280B2504362431C041B0C001910BC74
:1032800059411304120CC0185141614470470000A9
:1032900010B50148FDF7D2FEDC7B0010132310B5FA
:1032A00010481C78FFF71AFB0100012C0AD003DD3F
:1032B00080220D4800F02EF80C48FFF707FB0C4B5E
:1032C000186010BD084C5422200000F023F82200A2
:1032D000084980322368002B00D1216004349442D5
:1032E000F8D1E9E753460000582A00204C3300008B
:1032F000542A00209132001001480421014B184744
:1033000010100020ED280010014B1B68184700002A
:1033100010100020014B5B681847000010100020BF
:103320009A4200D2885470477047C046F8B5574655
:10333000DE464E464546E0B599460A9B07009A464A
:103340000D9B884693460B9C9B073BD10C9B9C4254
:103350003DD21E1B0B9415000C005E442A004B4608
:10336000013521002020B847B542F7D1A0460B9C7B
:10337000002C20D0454636195346321B013C185DBF
:1033800029004B46B847002CF6D12B003500984653
:103390000D9B9B070FD55B46EC1A0C9BA3420AD9E9
:1033A000464698462A004B46310020200134B84753
:1033B00001354445F6D32800F0BCBB46B246A946C9
:1033C000A046F8BD16001500002CD3D1E0E716008A
:1033D0001500002CCED1EEE7F0B54546DE46574647
:1033E0004E46E0B585B09C4610AB1B78149F9346C3
:1033F00098460F9C129E139DBB074CD4002D42D1C2
:10340000B44248D201233B4099460E9B013B9A4669
:10341000302304E0524601341355A64201D9202C32
:10342000F8D14B46002B00D183E00E9B013B99461F
:103430003023A54205D82EE04A4601341355AC424C
:1034400029D0202CF8D1FB060CD57B0554D4A642FC
:1034500063D0A54261D0119B102B50D0022B57D0C6
:10346000202C32D1202301930E9B5A4600930397C0
:1034700063460295FFF75AFF05B0F0BCBB46B24663
:10348000A946A046F0BD01233B40994601233B429B
:103490002AD1B442B9D3FB061CD57B05DBD4002C62
:1034A000D5D1119B102B5BD0119B022B6BD03023FD
:1034B00001240E9A13704346002B10D17B073ED592
:1034C0002B260E9A631C1655CDE7230001343026B7
:1034D0000E9AD654202CC5D04346002BEED02D2674
:1034E0000E9A631C1655BEE74346002B2FD0013DB4
:1034F000B44200D289E798E7119B102BB2D1BB06EA
:1035000037D5202CAED058230E9A13550134A7E797
:10351000202CA7D02300013407E0631E012CC0D06B
:10352000119A102A31D0022AD1D162260E9AD6548D
:1035300096E7FB06CED57B0500D488E78BE7230012
:103540003E0790D520260E9A013316558BE70C23A3
:103550003B405A1E9341ED1AB44200D255E764E74E
:10356000BB060ED478230E9A0224137030235370B6
:10357000A1E7202C00D175E778230E9A135501346A
:103580006EE75823EFE76033EDE70E9AA61E9146EB
:103590004E44BA0602D55822327098E7782232702B
:1035A00095E7C04610B5002800D110BD01F048FCD9
:1035B000FBE7C046F0B55746DE464E464546E0B509
:1035C00095B083460F00924698461E9A1F9B1000A6
:1035D0001900209EFFF781FD002800D0EAE11E9827
:1035E0001F990122C54B5242FFF75CFD002800D015
:1035F00014E11E981F990122C14B5242FFF768FD4A
:10360000002800D0E9E01E981F990022BD4BFFF76B
:103610005FFD002800D0C8E01E981F990022BA4B19
:10362000FFF740FD002800D0BFE01E981F99002240
:103630000023FFF737FD002800D0E4E000230B93C0
:10364000229B5B0500D406260024302307E01721C7
:1036500006AA013452181355013E202C01D0092E20
:10366000F5D81E981F99FFF761FDA84BF2009B1833
:103670001A685B68050008920993FFF73FFD020096
:103680000B001E981F99FFF7AAFC089A099BFFF7E9
:10369000CAFC06900791FFF76DFD8146FFF72AFDF2
:1036A00002000B0006980799FFF799FC0022984B3F
:1036B00006900791FFF70CFD002800D10DE10123D2
:1036C0009C46E1444846FFF715FD02000B000898B0
:1036D0000999FFF7EDFC002802D000239946013537
:1036E000002E00D1D9E006954D46B94614E006AA51
:1036F000944617230A216344280001341F19FFF759
:1037000033FA3031397028000A21013EFFF72CFAD4
:10371000092D00D817E10500202CE8D14F46069D61
:1037200020240CAE06AA17239446634499465B46B0
:10373000B34606930FE04B4628000A210134E618F1
:10374000FFF7EAF93031280031700A21FFF7E4F978
:10375000051E00D1E4E0202CEDD1069B5E469B4681
:103760000323229A1340012B18D1219B002B15D043
:103770000B9B002B00D1FDE0219B013B2193202BD3
:103780000CD93023219A07E0172006A90134091823
:103790000B55944200D3CCE0202CF5D1229B019410
:1037A0000393219B0096029322E0229B52460493AE
:1037B000219B3900039358461E9B1F9C0296009341
:1037C0000194434600F04AF90400200015B0F0BC13
:1037D000BB46B246A946A046F0BD229B5B070FD46C
:1037E00003224C4B2299019203912199009302915B
:1037F0004346524639005846FFF798FD0400E4E777
:103800000422454BEEE71E9A1F9B00200021FFF784
:10381000E6FB01231E901F910B9311E7229B544658
:103820009B0711D1219B042B0ED9219B55469C4609
:103830005E46043C64442A0043460135390020209A
:10384000B047A542F7D1B346344D26002B1F994609
:103850005B46A3461C003200E87843463900013D30
:10386000A04701364D45F6D123005C469B46229B7E
:1038700004349B07A9D55346219AE31A9A42A4D946
:103880005E4615002200434639002020B0475346CB
:103890000134E31A9D42F5D897E72800FFF72EFC84
:1038A00002000B001E981F99FFF799FB0022184B8E
:1038B00006900791FFF7F6FB0CAE002800D031E729
:1038C000069807990022124BFFF702FC002800D04F
:1038D00028E7012301359D4324E700220698079934
:1038E0000B4BFFF7DFFB002800D0F9E64B46002B1F
:1038F0005CD101239C46E144F2E6C046FFFFEFFFA6
:10390000FFFFEF7F65CDCD4165CDCDC12882001091
:103910000000E03FD47D0010CC7D0010DC7D001065
:10392000069B5E469B460323229A1340012B00D13F
:1039300081E0202C00D131E70B9B002B27D02D23D9
:10394000335501342AE74F46069D202C00D1E7E687
:103950003022331907E0172006A9013409180A5547
:10396000202C00D1DCE6A342F5D12E220CAE01348E
:10397000F254D7E60C23229A134257D0219B013BE5
:103980002193A34200D9FCE6202C00D106E7229B1C
:103990005B0703D52B2333550134FFE6229B1B071E
:1039A00000D4FBE6202333550134F7E6DB0700D4CF
:1039B00096E69EE7229B55469B0711D1219B032B40
:1039C0000ED9219B54469C465E46033D6544220029
:1039D0004346013439002020B047AC42F7D1B3460A
:1039E000B9465F461C4EEC1C2A00B0784346494657
:1039F0000135B847013EAC42F6D1229BBB464F464B
:103A00009B0700D4E1E65346219AE31A9A4200D874
:103A1000DBE65E4615002200434639002020B04711
:103A200053460134E31AAB42F5D3CEE6219BA342C1
:103A300000D9A6E6B2E6219B002B00D179E70B9BCB
:103A4000002B97D0219B013B21939C4200D298E60A
:103A5000202C00D073E7A1E6D87D0010F0B5DE463B
:103A600057464E464546E0B599B081468B4692464C
:103A70009846229A239B10001900FFF72EFB00287E
:103A800000D0CAE0229823990122824B5242FFF7CC
:103A90001FFB002800D0C0E02298239901227E4B12
:103AA0005242FFF7FFFA002800D0B6E0229823998F
:103AB00000220023FFF7F6FA002800D0C9E1229B7C
:103AC000239C08930994089809998023269ADB007F
:103AD0001A400D928022269C1201144022000B9461
:103AE000269C07000E001C4200D0ADE00B000343F3
:103AF00000D0D5E0002A00D00AE222000633249349
:103B0000022313400C930223134200D002E2259BB0
:103B1000042B00D20FE2043B0B93002304250A93ED
:103B20000022229823990023FFF7BCFA002800D036
:103B300003E25A4B269A134004930B9B0393249B56
:103B40000293089B099C00930194594643465246B0
:103B50004846FFF72FFD02002020269B1F27034029
:103B600059424B415B421840531C08935946434607
:103B70004530C8470A9AD317D4185C40D30F0A932C
:103B80006B1E0B9308AB9C460025674401E0202D7B
:103B90000FD020000A21FEF7E7FF01357E193031F2
:103BA000317020000A21FEF7DFFF26000400092EF5
:103BB000EDD8052306930B9B5946059300230493E8
:103BC0000A3303930A9B4846029310AB0093089A6A
:103BD00043460195FFF700FC0C9B002B2DD053466C
:103BE000C41A259BA34228D94D465F4681461E0034
:103BF000534639001A19202043460134A847A642EB
:103C0000F6D8534648462599C21A013200239142FC
:103C100000D386E1013018180FE0269B0493259B02
:103C20000393249B0293229B239C0093019443467D
:103C3000524659464846FFF7BDFC19B0F0BCBB469A
:103C4000B246A946A046F0BD01432BD10B9B2200F2
:103C5000002B00D154E700230A93249B0A9A0024E6
:103C6000934200DD85E12298239900220023FFF78B
:103C700019FA002800D035E1269B084A02941A4020
:103C80008023DB0013430493259B0393089B099C2B
:103C9000CBE7C046FFFFEF7FFFFFEFFFFFF7FFFF20
:103CA00006232493B44B70009C46400D6044FFF7FC
:103CB00025FAB24AB24BFFF7B6F9B24AB24BFFF758
:103CC00093F93603B14B360B334304000D00380033
:103CD00019000022AE4BFFF782F9AE4AAE4BFFF758
:103CE000A2F902000B0020002900FFF77DF9FFF781
:103CF0001DFA0A90FFF702FAA84AA94B04000D002A
:103D0000FFF791F90022A74BFFF76EF9FFF70EFAC4
:103D1000A54A0600A54B20002900FFF784F90400FE
:103D200030000D000C96FFF7E9F9A14AA14BFFF70F
:103D30007AF902000B0020002900FFF750F9020079
:103D40000B0006000F00FFF76EF9320004000D00B3
:103D50003B0030003900FFF747F900220E900F9129
:103D6000954B20002900FFF744F90022934BFFF701
:103D70003BF902000B0020002900FFF73AF900226E
:103D80008F4BFFF731F902000B0020002900FFF7ED
:103D900030F90D008021040032003B000020C905ED
:103DA000FFF71DF902000B0020002900FFF71CF9A6
:103DB00002000B000E980F99FFF71BF90022734BBE
:103DC000FFF712F97F4B0C9C9C46644400222305AC
:103DD000FFF729F906000F0002000B000898099967
:103DE000FFF760F900280AD00A9B3000013B390038
:103DF0000A930022714BFFF7FCF806000F000A9AA5
:103E0000330063323900C62A12D8022226980425CC
:103E100010400B9A0C90002A25D1259B042B05D924
:103E2000002800D0A1E0259B043B0B93042541E032
:103E30000222269810400B9A0C90002A12D1259B42
:103E4000052B76D9002872D1259B0525053B0B93C0
:103E500034E0802212069446229B0893239B6344FD
:103E6000099330E605250B4300D1F6E60898099939
:103E7000554A564BFFF724F9002808D008980999AD
:103E80000022534BFFF70EF9002800D0E5E6249BF3
:103E9000002B1CD00D9B002B19D0249B013B24939D
:103EA000259BAB4204D90C9B002B5AD002230C93C8
:103EB00000230B930A9B002B00D131E60898099947
:103EC00032003B00FFF795F80890099128E6259B02
:103ED000AB42EDD90C9B002B43D000230B93023354
:103EE0000C93E7E78020269B3A4A00061A4080237D
:103EF00084460294089C099D2900DB001343049327
:103F0000259B6144220003930B00009201938EE6EF
:103F10000524A8E600230B930A93023304250C938F
:103F2000FEE553468C46013B63441B1A72E60223AE
:103F30000C930525C2E70423EDE58020089E099F28
:103F4000000639008446269A224B614413400493AC
:103F50000B9B32000393249B02930B00009201936E
:103F6000F3E5259B5B1B0B93A4E7022304250C932D
:103F7000A0E79C1A013C76E601FCFFFFFB799F500D
:103F80001344D33FB3C8608B288AC63F0000F03F7C
:103F90000000F83F61436F63A787D23F71A379099F
:103FA0004F930A400000E03F1655B5BBB16B02408D
:103FB000EF39FAFE422EE63F00002C40000024407C
:103FC00000001840FF0300002D431CEBE2361A3FAF
:103FD00080842E41FFF7FFFFF0B5DE4657464E4680
:103FE0004546E0B5A5B01E002E9B92460C93CD4AE7
:103FF000CD4B80468B461A60002900D1EAE10023B0
:1040000030789946002800D1ECE1C84B4C460B9320
:10401000C74B454657460E930AE0631C984622005C
:104020003B005946A84744463078002800D187E035
:1040300001362528F1D108239A46043B9946023BD4
:104040009846013B00229C460D943078711C030079
:10405000203BDBB2102B03D80B9C9B00E3589F4600
:104060000300303B89460D9C092B3AD90023984622
:104070002A2800D1C1E000239A462E284BD0030005
:10408000683BDBB2122B1ED80E999B00CB589F4683
:1040900063460E001A43D8E743460E001A43D4E79E
:1040A0004B460E001A43D0E710230E001A43CCE70C
:1040B00053460E001A43C8E780235B001A43FF3BB8
:1040C0009C467078E1444E4667284FD82428A4D9EE
:1040D0000300253BDBB2422B9FD896499B00CB586F
:1040E0009F46002394461E0000E00131B3009B1957
:1040F0005B001E180878303E0300303B092BF4D9D2
:104100000123624689469C460023B0469A460E002B
:10411000E1442E28B3D13021802049428C46C00092
:10412000024370784B4684446146092900D86CE10B
:104130002A2800D17AE101239C464E46E1449EE7BD
:10414000A146A846BA46CA4503D801235B42534458
:10415000994653464A4659460020C047200025B09C
:10416000F0BCBB46B246A946A046F0BD0300693B81
:10417000DBB20D930F2B00D94FE7012199408C46FC
:104180006D49894661464B4619400F916346494641
:104190000B4200D028E10D9B0A2B3AD0072B00D010
:1041A0003BE70C9B190008C98846002B00D14BE166
:1041B00021200243914614A98C461F220F216244FC
:1041C0008C4651460D950C91A24615000F9902E0C0
:1041D00020290CD0130064461C4020003730092CE5
:1041E00000D80738013168541A090F2BF0D80C9BFE
:1041F00054460D9D9A460F9133E10C9B02CB8846A5
:10420000002947DB0C9301239C4670784E46E1441D
:1042100031E70C9B02CB14935346002B00D138E1BD
:104220009C4608780B000C908C44002801D100F0CB
:1042300098FC89466146944603E05A780133002A87
:1042400001D08B42F9D1494662465B1A0C900F931C
:10425000530500D520E10223180010400D901342B1
:1042600000D1CBE30D930B1BB1469A465E460C98EA
:1042700022003B003100A84753460134185D002856
:10428000F6D1B3464E460D9B002B00D0C7E1149BE0
:104290000C93C9E60C9301239C46283849420243FB
:1042A000884670784E46E144E5E670786C2800D187
:1042B0007FE180235B001A43FF3B9C46E14402E719
:1042C00080239B001A4301239C467078E144FAE660
:1042D0007078682800D173E180231A437F3B9C46A5
:1042E000E144F0E6672800D103E1472800D15AE114
:1042F000452800D15AE10492072142460C9B0392C3
:10430000073352468B43190002920CC928000092D1
:1043100001930C9122003B005946FFF79FFB0400DC
:1043200082E6C046D93F00108C250020888000100E
:10433000CC8000101881001041900000462800D168
:10434000DBE00492072142460C9B0392073352465E
:104350008B43190002920CC92800009201930C9122
:1043600022003B005946FFF725F904005CE6631C78
:10437000984622003B0059462520A847444653E66C
:104380000C9B04330D93631C9946920700D422E1E1
:104390000C9B2200187859463B00A84743464444EA
:1043A000012B00D885E23300B8462E005F46250079
:1043B0004C46994622004346013439002020B0473C
:1043C000AC42F7D12C00BB46350047464E460D9B0C
:1043D0000C9329E6DB4B3078984600239946002859
:1043E00000D012E60024AEE66F2800D188E000D8A5
:1043F0000BE31023782800D1CFE09A430A239C4690
:1044000000230F930A330D9380E05646B1008919BB
:10441000490001330E181878303E0100303909295F
:10442000F4D9B2461E000133994628E60C9B0236A9
:1044300002CB8A46C9435046C917084082460C93AE
:104440003078731C99461AE61023100098431133F4
:104450001843814680201300C0000340024200D16F
:10446000A9E64B460693082305935346049310236D
:104470000393002302930F9B220001931CAB009334
:1044800059463B002800FEF7A7FF434604000C9363
:10449000CAE501235B42C3E60F9B534501D953464E
:1044A0000F930223180010400D90134200D1B7E182
:1044B0000D93D1460B1B9A463300A1442E002200D7
:1044C0004D460C98B9465F469B4608E04B4639007E
:1044D000541CB0475346185D002877D022009542FF
:1044E000F4D15B46BB464F46A94635004C461E00FC
:1044F000C9E680231B011A43FDE620231A4320E767
:1045000008239C4600230F9308330D93802311004A
:10451000DB0019401A4200D116E10D239A43100026
:10452000802302009B001A401492184200D0C2E17E
:10453000802302005B001A4091460C9A04320F92CD
:10454000184200D0B7E2430600D59FE1030600D42D
:1045500019E30C9B1B880993002B00D0FCE110335E
:104560009843002900D1F7E100239946434605937B
:10457000534604930D9B069003930023D2E05828E2
:1045800008D0622867D102239C4600230F93023390
:104590000D93BBE720231A43103B9C4600230F9347
:1045A00010330D93B2E780231B011A4320231A43D3
:1045B000A1E6C0239B001A43F31C9946B07882E51C
:1045C000C0231A43F31C9946B0787CE535005E465B
:1045D000BB464F4657E64346012B00D863E1631EB6
:1045E00043449A463300B9462E005F4655469B46E3
:1045F000A24622004B46013439002020B047AC428D
:10460000F7D135005E46BB464F46A14654460C9B4B
:104610004A46187859463B004444A847D7E6A14685
:104620000F9B984500D832E64444E41A3300B8465C
:104630002E005F4625004C46994622004346013431
:1046400039002020B047AC42F7D12C00BB463500E2
:1046500047464E461BE680231000DB0018401A42F6
:1046600000D10FE1112118008A430D920D9A802389
:1046700011009B0019408C461A4269D18023110019
:104680005B00194089460C9904310F911A4200D001
:10469000CAE113005B0600D5F0E013001B0600D44E
:1046A00059E20C9B00229B5ED9175A184A4092B2DD
:1046B000D90F0C91002B00D1F9E1100014AA9446F7
:1046C00042461F23149252466344A84616944D4610
:1046D0000400B946B2461F00159201E0202D0FD00C
:1046E00020000A21FEF740FA01357E193031317081
:1046F00020000A21FEF738FA26000400092EEDD822
:10470000149B4F46A94645469846159B56469A46E1
:10471000169C0D9B069343460593534604930A2328
:1047200003930C9B02934B4601931CAB2200009316
:1047300059463B002800FEF74FFE0F9B04000C93E8
:1047400072E4C046293300100C239A431000E7E6B8
:1047500007220C9B07339343013294469C446246E4
:104760000C920CCBD90F0F911100194300D191E09D
:10477000D9171391129151401091139959401191E9
:1047800010981199129A139B801A994110901191C7
:1047900014AA0023944642469946149252461F3367
:1047A0006344A846B24616944E46109C119DB946E5
:1047B00015921F0001E0202E10D0200029000A22AF
:1047C0000023FEF70FFA013630322B00BA550D00E8
:1047D00022000400002BEED1092AECD8149B10947F
:1047E000119545469846159B4F46B14656469A4602
:1047F000169C0D9B069343460593534604930A2348
:1048000003930F9B02934B4601931CAB2200009332
:1048100059463B002800FEF7DFFD0400FFF704FCCB
:104820000F9B984500D8C1E18023DB000D934346E0
:104830000F9A1B199B1A994633002E004D46B94614
:104840005F469B460C9122004B46013439002020E4
:10485000B047AC42F7D143460C9901330F930B7824
:1048600035000C935E46BB464F46002B00D10EE54B
:104870000D9B002B00D1F6E4002319E60C9B1B785E
:104880001A0015E710239A430D92EFE60C9B1B7854
:10489000099361E6002399460028AAD1002200234B
:1048A0001092119374E70C9B2200187859463B0034
:1048B000A8474C468BE50C9AFA3BFF3B07329A43DC
:1048C0000133994691444B460C93136852681592F4
:1048D0001A4306D11032904300220992002900D0D9
:1048E00081E06122810600D54122D2B20A9214AA47
:1048F00091460A9A00210A3A149242461792524669
:1049000018925A460991B3461F311E000F9B494425
:10491000BA4619941A950024674698468946159D0B
:1049200016901B920AE03032D2B24B4601341A552F
:10493000A8454AD0202C4AD006000D003A0000239A
:1049400030002900FEF74EF9D2B2092AEBD9149BA8
:104950009C466244D2B2E8E76123820600D5412337
:10496000DBB20A3B0C93434614A91F228C461593D5
:1049700053466244A046B2464C461797A9461700D4
:10498000099D0D9E1490169308E03033DBB201347C
:104990003B55B5420ED3202C0CD005003100280029
:1049A000FEF7E2F8CBB20929EFD90C9A944663449A
:1049B000DBB2ECE7159B4D46A14644469846169B54
:1049C000564614989A46179FD0E5B742B2D9179B1E
:1049D00057469846189B5E469A461B9B09949B46F1
:1049E0001698199C1A9D43460593534604930D9BB4
:1049F0000690039300230293099B05E70F9B9845BC
:104A000000D914E701330F932DE4102311009943CB
:104A10000D91692800D0BAE080231000DB00184017
:104A20001A4200D122E61DE60C9B1B68DA0F11002A
:104A3000002B00D18CE0DA179818504014AA914648
:104A400042461F23149252464B44A046A94616974D
:104A500004006546B2461F000C91159201E0202D1E
:104A60000FD020000A21FEF77FF801357E19303182
:104A7000317020000A21FEF777F826000400092E85
:104A8000EDD8149B444698460C9BAC461900159BE8
:104A900056464D469A46169F0D9B029106934346F5
:104AA0000593534604930A23039363463CE6002888
:104AB00000D02EE602E60C9B1B689946002B03D122
:104AC00010339843002938D16123820600D5412351
:104AD000DBB20A3B0C9343461693534614A91F229C
:104AE0008C4617932B006244A0464D46B246189759
:104AF00099461700149C0D9E159008E03033DBB2E8
:104B000001343B55B5420ED3202C0CD005003100AA
:104B10002800FEF729F8CBB20929EFD90C9A944660
:104B20006344DBB2ECE7169B149444469846179B0B
:104B300056464D469A461598189F43460593534648
:104B400004930D9B0690039300230293149BEBE5C3
:104B50000028A1D172E70C9B1B68D9175A184A404C
:104B6000A6E580231000DB0018409C460F901A42F7
:104B70000FD00220030013400F93104219D00023DE
:104B8000A1460F934CE50C9B1B680993E4E40A00D3
:104B900034E40223180010400D90134200D03EE58B
:104BA0004346002B00D042E6FFF771FB01330F9321
:104BB0007FE463460D93F3E70CB430B585B008ACE1
:104BC00008CC064D0A000094010028000394FFF76A
:104BD00003FA05B030BC08BC02B0184721330010FE
:104BE00010B5094A0300146884B0002C08D00122D3
:104BF00000910648524203A9A047012004B010BD0D
:104C000000F068F90020F9E78C250020A535001098
:104C100000BEFDE710B5FFF7FBFFC04670B5FDF71E
:104C2000A3FE074D074EB54209D20024013E761B74
:104C3000B60808CD984723000134B342F9D170BDBE
:104C40007C7B0010847B0010030010B5080011006D
:104C50001B68984710BDC046F0B5C64600B5437DF9
:104C600007000C001600002B46D0002A17DD0B7839
:104C70000A2B24D000239846012E13D001252900A9
:104C8000635C01350A2B26D0B542F8D1464509DCD4
:104C9000A419013C23780D3B5A4253413B7580BC1B
:104CA000B846F0BD4346E018A419F11A013C3B6830
:104CB000984723780D3B5A4253413B75EFE7037DFC
:104CC000002BD7D102210F483B689847012EDFD037
:104CD00001239846D2E7631E5B5C0D2BD4D0884538
:104CE00004DA4346C91AE0183B6898470221054890
:104CF0003B68A8469847C7E703681100200098471B
:104D0000CDE7C04678820010F0B54546DE464E46F7
:104D10005746E0B583B091461C0080460D00FDF774
:104D2000C1F80023304A12184B41002B02DA01224D
:104D30002E4B52422E4908008A4602F0D9FE070047
:104D40006B1C03D1404602F073FE0500002C27D0F7
:104D5000284E294B1C68002C18D04B46002B21D123
:104D6000264B994602E02469002C0FD02368002BC3
:104D7000F9D04B461B68002B01D09C42F3D1200098
:104D80002A004146B0472469002CEFD1002F26D1DC
:104D9000280003B0F0BCBB46B246A946A046F0BD11
:104DA000174ED6E7154B99460A239B4602E0246925
:104DB000002CEBD02368002BF9D04B461B68002B4E
:104DC00001D0A342F3D12A0041462000B0476B46F0
:104DD0005A462000DA71D91D0122B047E7E7504654
:104DE00002F05EFED4E7C04640420F00FFFFFF7FA7
:104DF00060100020594C0010D81700200821002016
:104E0000494C00100A4A1368002B05D10CE01A0027
:104E10001B691032002B07D08342F8D1002902D140
:104E200018691060196170470029FCD01060FAE71A
:104E3000D817002010B500F039F9012010BDC04688
:104E4000F0B5CE46474680B583B06B460600DD1D03
:104E50002870FDF727F80023194A12184B41002B40
:104E600002DA0122174B524217490800884602F025
:104E70003FFE164B81461C68002C14D0144F02E0F4
:104E80002469002C0FD02368002BF9D03B68002B3D
:104E900001D09C42F4D1200001222900FFF7DCFE62
:104EA0002469002CEFD14B46002B05D1300003B014
:104EB000C0BCB946B046F0BD404602F0F1FDF5E792
:104EC00040420F00FFFFFF7F60100020D817002036
:104ED0000821002070B5040002F0AAFD01230100A2
:104EE000050001222000FFF70FFF084B1C68002C73
:104EF00006D06368002B05D098472469002CF8D1B0
:104F0000280070BD2469002CF3D1F9E7D8170020E0
:104F1000F0B5002915DD0E4B0D271A680D4B0E4C10
:104F2000D3185D426B41451820215B001E5F047859
:104F3000A64207D093691942FCD101301460A842FF
:104F4000F5D1F0BD93691942FCD11760F2E7C04674
:104F5000602B00200080FCBF5C2B0020204B70B534
:104F600004000D1E1E682ADD002010211D4B013C8F
:104F70001A689369194214D1013093691942FCD11E
:104F8000136823548542F4D1002E08D05023936334
:104F9000516B183B0B4014498C4662441360280047
:104FA00070BD002E08D050239363516B183B0B400B
:104FB0000D498C46624413600028F1D10CE0002EAC
:104FC0000AD05022074B1B689A63596B183A0A4063
:104FD00005498C4663441A6003204042E0E7C0461E
:104FE0005C170020602B002034100000064B10B529
:104FF0001B68002B06D00021044A12689163044A02
:105000001068984710BDC0465C170020602B002038
:10501000601700200822034B19688B691A42FCD1E3
:105020007047C046602B0020F8B51A4F1A4B3A68FB
:105030000500D31858424341184E14331C003368FE
:10504000002D02D0002B0FD0F8BD002BFCD000218A
:1050500020009563FCF7C4F820001149FCF7F6F92D
:10506000104B35601D60EFE70E4B200019600C49B6
:105070003560FCF7C7F801212000FCF7B1F8502299
:105080003B689A63596B183A0A4007498C46634457
:105090001A60D9E7602B00200080FCBF5C1700205D
:1050A000ED4F001060170020341000000D4B10B5BC
:1050B0001B780D4B0D4C1B780D4B02211B780D4BB3
:1050C00000202360FBF77AFF02210120FBF776FF27
:1050D000E12120684902FCF733FF01210648FFF770
:1050E00091FE10BDB0830010AC830010602B002037
:1050F000A88300100040034020100020F8B500F005
:10510000C7F90C23194DFF22AB6705201849FCF79E
:10511000A3F8184C402200212000FEF7F5F84027A4
:10512000002301262121144A66702783A2601360A0
:1051300063545F31618445396354104A1049636098
:10514000E2602787A1620B606362E26202F0F0FC1A
:1051500080239B052E64EB6490230A4A0120EA50C9
:105160008022094B5202DA64F8BDC046000011509B
:10517000150300208C2100208400105000011050E5
:105180008000105010D001000020115010B50121F6
:105190000520FCF725F810BD10B5002200210248BB
:1051A00000F096F910BDC046AC210020044B1970E8
:1051B000002904D080219023024A8902D1507047EF
:1051C000652B0020002011500B785B0602D14B7834
:1051D000052B00D070478A78014B1A60FAE7C04669
:1051E00000001150F0B5C646C87800B58007830F9F
:1051F0001800012B60D08F780A794B797F213940D4
:10520000FC091B024E001343334D32195201AA18F8
:10521000977001276740577000275B055B0DD770BB
:105220001383D076B846CA00012C32D02B4FBC462F
:105230008F016244BC46AC446746BA60474617607B
:10524000002932D0264AC900904662464144516046
:105250003F223F339343022837D0224937190A6847
:105260007F01D3180B602049EF19FA608B422ED8CA
:1052700036197601AD19EB7E1C499B064A40134353
:105280008022120613436A681360012080BCB8466E
:10529000F0BD174FBC468F016244BC46AC44674624
:1052A000BA6247461760002908D1002364012C190F
:1052B0006360104BE360E8E70020E7E70B4AC900B2
:1052C0009046624641445162C2E75B00C5E7FDF784
:1052D00045FBFA68CCE7C0468C21002084001050C2
:1052E00004001050202A0020FF0F10500000105022
:1052F00080001050000110507F200840F8B5CE0902
:105300004400234DA3195B01EB18997001217140F2
:105310005970012700211A83D970DF76C300012E4E
:1053200024D01C4FBC4687016344EF19BB60196051
:10533000002815D100217301EB1859601649D96076
:10534000A3195B01ED183F2314483F3201689A43CB
:10535000E9608918124A0160914216D80120F8BD0F
:10536000104BC0009C4660447860E9E70E4FBC4695
:1053700087016344EF19BB6219600028DAD00B4B38
:10538000C0009C4660447862DAE7FDF7E7FAE5E79B
:105390008C2100208400105000011050202A002091
:1053A000FF0F1050040010508000105000001050EB
:1053B0007F2310B58A780E4813405B00D2099B18F2
:1053C0005B01C318D868002810D04A790C79120202
:1053D00022431A830749DA7E414092060A4380211C
:1053E00001205B6809060A431A6010BD0020FCE733
:1053F0008C2100200000105010B502F099FB10BD68
:1054000010B57F200C0020404000E4091100001975
:105410001A00034B4001C01800F05AF8012010BDDB
:105420008C2100207F23180000B5084083B00B4278
:1054300004D14B424B41084A013393668022C9098B
:105440004000064B401840010021C018120102F034
:1054500067FB03B000BDC046002011508C21002026
:105460007F22130010B50B400A4200D110BDC909BC
:105470005B005B1804485B01C0180023002203494D
:10548000C37002F04DFBF1E78C210020FFF7FFFF16
:1054900080220A4B520410B51A60094B09491A6060
:1054A00010000B689843FBD180220021520106486E
:1054B000FDF72AFF0922054B5A6710BD00E00040A6
:1054C00000F0004008C000400000105000001150E3
:1054D000002310B5C3820133828283760161040008
:1054E00002F0FEFA002804D080219023074A8902A6
:1054F000D150200002F00CFB002802D001232377BA
:1055000010BD200002F0FCFAFAE7C046002011505E
:10551000002070477047C0467047C0460020704763
:1055200000207047002070477047C0467047C04653
:105530007047C0467047C046014B98787047C046D8
:1055400034150020024B5878431E9841C0B2704772
:1055500034150020024B18784007C00F7047C04632
:1055600034150020F0B5D6464F464646C0B52F4B01
:1055700007009A461B780E00FF2B50D1002941D01E
:10558000002154222A48FDF7BFFE0022294C2A4B55
:1055900020001A70FCF7CEF8284B1C60284C200025
:1055A000143CFCF7D5F8200002F0B2F8254B264D4C
:1055B0001C60264B002B04D0280000E000BF244BC9
:1055C00018602449002489462149002388462A7806
:1055D00010E043461B6862019B18002B12D05B68E9
:1055E000002B0FD098472A780134E4B2511C2300D5
:1055F000A14209DBA242ECD89B1A5B014B445B68D9
:10560000002BEFD100200BE05346310038001F7013
:10561000FFF774FD0028F5D03800FFF7B7FD012033
:10562000E0BCBA46B146A846F0BDC04654100020C2
:10563000341500202C150020662B00208815002032
:105640004C1000208C150020642B0020000000006E
:10565000E812002040830010F0B5DE4657464E4663
:105660004546E0B5C84B91B002931B78FF2B00D1A3
:105670003EE1C64BC64E9B465F46C64B0DAC019302
:10568000C54B009335686A69EFF3108172B61368F1
:10569000002BFCD0BFF35F8FA9612800210001F02F
:1056A00067FE6A69AB69BFF35F8F0021116083F306
:1056B0001088002800D11BE16378082BE2D89B00FA
:1056C000FB589F466368002BDCD0A0689847D9E759
:1056D0007F222179AF4D0A405300EB189846C80944
:1056E000804440460123303005799D43057105799A
:1056F00003339D430571002A00D100E14346A74AC8
:105700001B7D1278934200D3EFE0A54A5B01156838
:10571000ED18002D00D1EBE0A36862792078AD6927
:10572000A847AFE79F4A1378002B00D1E0E0137839
:10573000013BDBB213701378002BA3D10122954DEE
:1057400001212B78042013432B703423EA5C8A4315
:10575000EA54EA5C8243EA540133EA5C8A43EA543D
:10576000EA5C8243EA54237800209B4600F0F4FC74
:10577000602223791A40602A00D1EFE0402A00D14C
:10578000F5E0DB06DB0E012B00D113E1022B00D18B
:10579000C7E0002B00D0E1E0202A00D11CE2002A63
:1057A00000D0DBE06379092B00D9D7E07E4A9B006B
:1057B000D3589F46774D2B78DB0700D462E7FFF77D
:1057C000B9FE5FE7019BDB78DB0700D45AE760682E
:1057D000FFF7A2FE56E76F4D2B78DB0700D451E7A9
:1057E00028780007C00FFFF7A3FE4BE723786A492C
:1057F00099468B46694B6A4998468A4639001A7819
:1058000047460023B04600254E46894610E05346E1
:105810001B686A019B18002B00D176E0DB68300022
:1058200098473A780135EDB2511C2B008D4244DC8B
:105830009542ECD39B1A5B015B44EFE72378584910
:105840009946564B8A4698463100BB464E461A78D2
:1058500000250023474689460FE053461B686A012E
:105860009B18002B55D0DB68300098473A780135FB
:10587000EDB2511C2B008D4207DC9542EDD39B1AF3
:10588000009A5B0194466344EDE7019D5422002198
:105890002800FDF739FD1022FF214448FDF734FDB3
:1058A00028002022FF2114304E465F46FDF72CFDD4
:1058B00000F048FCFFF73AFEE4E6364D54220021A2
:1058C0002800FDF721FD1022FF21281DFDF71CFDFA
:1058D00028002022FF21143046464F46FDF714FDD4
:1058E00000F030FC2379AB70CCE6501C984213DA00
:1058F00011B0F0BCBB46B246A946A046F0BDA368B5
:105900006279207800F03CFCBCE646464F46214DCB
:10591000E6E74E465F46CBE71F4D9B1A5B015D19DC
:10592000FAE67023217A0B4218D1C80982460F3358
:105930000B405B0098461948EB1853441B7D0078D8
:105940009946834266D216485B01006881469944B5
:10595000002A00D15FE14B46002B68D1207800215E
:10596000FFF760FD80212078FFF75CFD8AE6104894
:1059700000F0F2FB012158460EAAFFF7C9FD0028EE
:1059800000D07FE6EAE7C04654100020988200105D
:105990008C1500203415002040830010642B00205B
:1059A000E8120020662B0020BC8200103815002071
:1059B00011550010237A0F2BD0D8CF4AEB181B7942
:1059C0001578AB423ED3691C9942C7DB5D1BCB4BBC
:1059D0006D01ED18686900F0BFFB012158466B6945
:1059E0000EAA9847002800D04CE6602215002379C3
:1059F0001D401A42B2D163790A3B012BAED800F0A8
:105A0000ABFB63790A2B00D199E158460EA900F04F
:105A10002FFB37E6431C4B4500DAF7E04B461B1AD9
:105A20005B019946B5488144002A00D1F3E04B461A
:105A3000586900F091FB4B46012158465B690EAA5C
:105A400098479CE7AE4A5B011568ED18002DC1D15F
:105A500084E7A37999466B789945D6D06B78002B6B
:105A600000D033E14B466B70002B00D12BE1484650
:105A70000138C0B2FBF764FA002800D17EE1437818
:105A80000793022B00D079E10122C179B1468B1135
:105A9000491113400A40302112015B0113432A7857
:105AA000A8468A4313432B7009239A4682445646DC
:105AB000BA46C37882781B021343C31805938E4BF2
:105AC00004938E4B08938E4B09938E4B0A93059B40
:105AD000B34200D855E1737801220B2B03D1337800
